:030000000205BB3B
:0C05BB00787FE4F6D8FD7581230202D29F
:0D05AE0054656D70657261747572653A0078
:0505DB00007FE3DFFEDC
:0105E00022F8
:0505E100007F1DDFFE9C
:0105E60022F2
:0505E700007F03DFFEB0
:0105EC0022EC
:0505ED00007F16DFFE97
:0105F20022E6
:0105F90022DF
:0505F300007F14DFFE93
:0105F80022E0
:10053900D2B7C2B7007FE3DFFED2B7007F1DDFFE6F
:0C054900A2B7E433FE007FE3DFFEAF0644
:010555002283
:10055600C2B7007E03DEFEEF24FF92B7007E16DEF2
:03056600FED2B70B
:01056900226F
:10056A00C2B71205F9D2B71205F9A2B7E433FE12DF
:03057A0005F3FF87
:01057D00225B
:0204B700AD078F
:1004B900E4FBFAAF03A8077401088002C333D8FC30
:1004C9005DFF1205560BBB00010AEB64084A70E395
:0104D9002200
:10046C00E4FDFBFA12056AEF600FAF03A8077401F5
:10047C00088002C333D8FC42050BBB00010AEB64B5
:06048C00084A70E0AF0514
:010492002247
:0D05A1001205397FCC1204B77F440204B765
:100441001205397FCC1204B77FBE1204B712046CB7
:10045100AC0712046CEFFEAD04EDFFAC06EC12002C
:0B046100A8E4FBFA7980784102000655
:1002D20012057E7BFF7A0579AE7D017F011204DA79
:1002E2001205A11204411200E18F23C3748094808D
:1002F200500F7B2D7D017F021205D1E523F404F519
:1003020023E523FB7A00750C037D027F021204931E
:100312007B2E7D057F021205D1AF237E007C277DD7
:100322001012018FE4FCFD7B107A27F9F8120232D9
:0C033200750C047D067F0212049380A469
:06059200C2A58F80D2A774
:080598007F027EEFDEFEDFFCB6
:0105A0002238
:0A05C700C2A6120592C2A702059811
:1004FD00CFCDCFCECCCE1201A17C007D0A1201A1B1
:04050D00ED2430FFAA
:0A051100D2A6120592C2A7020598B7
:10051B00AE07EEFB7A0064017004ED148009EB6406
:0E052B00024A7009ED243F4480FF1205C722EA
:10057E007F381205C77F0C1205C77F061205C77F8D
:04058E00010205C79A
:0A05D100AC0312051BAF0402051174
:0604DA008B088A09890A63
:1004E00012051BE4FDAB08AA09A90A8D82758300D9
:0C04F000120162FF60061205110D80E988
:0104FC0022DD
:0A041000EF24FFFDEE34FFFC7F0A2D
:08041A008E0D8F0E8C0F8D106A
:100422007F017E00E4FBEBC39510E50F6480F87456
:0E0432008098500AAC0DAD0E12018F0B80E8C1
:010440002299
:040493008A0A8B0B3B
:1004970012051BAA0CEAFF7E00D394007480948097
:0F04A700400D120410AC0AAD0B1204FD1A80E6D2
:0104B6002223
:040389008B828A8356
:10038D0012051BC3E58364809480400D7F2B1205FD
:10039D001185831685821780107F2D120511C3E4F8
:1003AD009582F517E49583F516AA15EAFF7E00D31D
:1003BD00940074809480400D120410AC16AD171289
:0503CD0004FD1A80E6AA
:0103D2002208
:04033E008A1A8B1B71
:1003420012051BAA1CEAD39400748094804037EAF9
:1003520024FFFDE434FFFC7F107E0012041AAC1A65
:10036200AD1BCFCDCFCECCCE1201A1EF540FFEC329
:10037200940A74809480EE5004243080022437FF63
:060382001205111A80BFF4
:010388002252
:0403D3008A1F8B20D2
:1003D70012051BAA21EAFF7E00D394007480948043
:1003E7004026EF24FFFDEE34FFFC7F0212041AAC17
:1003F7001FAD20CFCDCFCECCCE1201A1EF5401241B
:0804070030FF1205111A80CD2F
:01040F0022CA
:10000300020157EC5D046005E85904700302014DD9
:10001300120118580460F6EC4860F2EC7004FDFE1F
:10002300FF22C860DB2481C85009C39860025006D0
:100033000201549850CAF582E9294B4A7005AB82F4
:1000430002014375F0007C1A7880C3EF9BEE9AEDB2
:1000530099400DC3EF9BFFEE9AFEED99FDE842F048
:10006300DC23ACF0D0E0FFD0E0FED0E0FDAB82209B
:10007300E7101BEB60BAEC2CFCEF33FFEE33FEED25
:1000830033FD02012FE803F830E705C0F075F000F7
:10009300EF2FFFEE33FEED33FD40B830E7C280AA09
:1000A30075F020800E75F010800575F0087D007ED8
:1000B300007F003392D530D5031202C4EC334010D5
:1000C300EF33FFEE33FEED33FDEC33FCD5F0ED22E1
:0E00D300E5F0247EA2D513CC92E7CDCEFF221D
:1000E100EDD2E7CD33EC3392D524814006E4FFFE17
:1000F100FDFC22FCE4CFCECDCC24E0501174FF8076
:10010100EDC3CC13CCCD13CDCE13CECF13CF047012
:07011100F030D5DE0202C44C
:10011800E9D2E7C933E833F892D5EDD2E7CD33EC2D
:0701280033FC5002B2D522A6
:10012F00EC30E7100FBF000C0EBE00080DBD000431
:10013F000BEB6014A2D5EB13FCED92E7FD2274FFDD
:10014F00FCFDFEFF22E480F8A2D574FF13FC7D8036
:03015F00E480EF4A
:10016200BB010CE58229F582E5833AF583E0225052
:1001720006E92582F8E622BBFE06E92582F8E2229C
:0D018200E58229F582E5833AF583E49322B6
:10018F00EF8DF0A4A8F0CF8CF0A428CE8DF0A42E84
:02019F00FE223E
:1001A100BC000BBE0029EF8DF084FFADF022E4CC42
:1001B100F875F008EF2FFFEE33FEEC33FCEE9DEC0B
:1001C100984005FCEE9DFE0FD5F0E9E4CEFD22ED51
:1001D100F8F5F0EE8420D21CFEADF075F008EF2F9B
:1001E100FFED33FD4007985006D5F0F222C398FD8C
:0501F1000FD5F0EA2229
:1001F60075F008758200EF2FFFEE33FECD33CDCCC0
:1002060033CCC58233C5829BED9AEC99E582984042
:100216000CF582EE9BFEED9AFDEC99FC0FD5F0D61F
:10022600E4CEFBE4CDFAE4CCF9A88222B800C1B949
:100236000059BA002DEC8BF084CFCECDFCE5F0CB87
:10024600F97818EF2FFFEE33FEED33FDEC33FCEBC0
:1002560033FB10D703994004EB99FB0FD8E5E4F97B
:10026600FA227818EF2FFFEE33FEED33FDEC33FC68
:10027600C933C910D7059BE99A4007EC9BFCE99A5C
:10028600F90FD8E0E4C9FAE4CCFB2275F010EF2FA1
:10029600FFEE33FEED33FDCC33CCC833C810D707A1
:1002A6009BEC9AE899400AED9BFDEC9AFCE899F8DC
:0E02B6000FD5F0DAE4CDFBE4CCFAE4C8F9226F
:0E02C400C3E49FFFE49EFEE49DFDE49CFC224B
:00000001FF
