:0300000002026099
:0C026000787FE4F6D8FD7581070202A744
:10036D006030000A000000000000000000000001E5
:10037D00000000010000000000010001000100006C
:10038D00000000010000000100010001000000015B
:10039D00000100014A00003F065B4F666D7D077F3F
:1003AD006F50003A00000001000200030004000538
:0403BD00000600072F
:0803C2007F027EEFDEFEDFFC8E
:0103CA002210
:0502EC00E0FEA3E0FFAD
:1002F10090005EECF0A3EDF090000E75F006EF12A9
:1003010001FFEE75F006A42583F583E0FCA3E0FD73
:10031100EC4D24FF92A290000C75F006EF1201FF44
:10032100EE75F006A42583F583E0FCA3E0FDEC4D1A
:1003310024FF92A390000A75F006EF1201FFEE75FB
:10034100F006A42583F583E0FEA3E0FFEE4F24FF32
:1003510092A490005EE0FEA3E02400F58274003ECA
:0C036100F583E0F5801203C2E4F5802271
:0803CB007F277EE6DEFEDFFC69
:0103D3002207
:10000300E490004AF0A3F0A3F0A3F0A3F0A3F090D0
:10001300005AF0A3F0A3F0A3F090004AE0FFA3E09E
:10002300900056CFF0A3EFF090004CE0FFA3E090D8
:100033000058CFF0A3EFF090004EE0FEA3E0FBAA40
:1000430006E4A3F0A3F0A3F0A37404F0E4A3F0A3E5
:10005300F090005CE07002A3E060030200DF900018
:1000630056E0FEA3E0FF7C007D0A1201C990005018
:100073001202EC900056E0FEA3E0FF7C007D0A1222
:1000830001C9900056EEF0A3EFF0900051E004F0A8
:100093007006900050E004F0EF4E70C2900058E0FC
:1000A300FEA3E0FF7C007D0A1201C99000521202F8
:1000B300EC900058E0FEA3E0FF7C007D0A1201C92A
:1000C300900058EEF0A3EFF0900053E004F07006B8
:1000D300900052E004F0EF4E70C280327C007D0A43
:1000E300AF03AE021201C99000541202EC7C007DF2
:1000F3000AAF03AE021201C9AA06AB07900055E08E
:1001030004F07006900054E004F0EB4A70CE20B087
:10011300171203CB30B0FD1203CB90004BE004F079
:10012300700690004AE004F020B1171203CB30B1FF
:10013300FD1203CB90004DE004F0700690004CE0FC
:1001430004F020B21B1203CB30B2FD1203CB90009C
:100153005AE0FEA3E0F4FFEEF490005AF0A3EFF0B0
:1001630030B30302001C1203CB30B2FD1203CB9059
:10017300005CE0FEA3E0F4FFEEF490005CF0A3EF7C
:10018300F090005AE07002A3E0701D90004CE0FE76
:10019300A3E0FF90004BE02FFF90004AE03E900069
:1001A3004EF0A3EFF002001C90004CE0FEA3E0FF32
:1001B300C390004BE09FFF90004AE09E90004EF0FA
:0601C300A3EFF002001C96
:10026C00020003E493A3F8E493A34003F68001F2A5
:10027C0008DFF48029E493A3F85407240CC8C33393
:10028C00C4540F4420C8834004F456800146F6DF62
:10029C00E4800B010204081020408090036DE47E82
:1002AC00019360BCA3FF543F30E509541FFEE49357
:1002BC00A360010ECF54C025E060A840B8E493A31E
:1002CC00FAE493A3F8E493A3C8C582C8CAC583CA49
:1002DC00F0A3C8C582C8CAC583CADFE9DEE780BE01
:0103C100003B
:1001C900C2D5EC30E709B2D5E4C39DFDE49CFCEE51
:1001D90030E715B2D5E4C39FFFE49EFE12020BC3BC
:1001E900E49DFDE49CFC800312020B30D507C3E4B7
:0601F9009FFFE49EFE22C0
:0C01FF00A42582F582E5F03583F583220B
:10020B00BC000BBE0029EF8DF084FFADF022E4CCD7
:10021B00F875F008EF2FFFEE33FEEC33FCEE9DECA0
:10022B00984005FCEE9DFE0FD5F0E9E4CEFD22EDE6
:10023B00F8F5F0EE8420D21CFEADF075F008EF2F30
:10024B00FFED33FD4007985006D5F0F222C398FD21
:05025B000FD5F0EA22BE
:00000001FF
