:0300000002049562
:0C049500787FE4F6D8FD7581540204DC89
:06075400C2A58F80D2A7B0
:08075A007F027EEFDEFEDFFCF2
:010762002274
:0A076300C2A6120754C2A702075AEB
:1006EA00CFCDCFCECCCE1203F47C007D0A1203F418
:0406FA00ED2430FFBC
:0A06FE00D2A6120754C2A702075A41
:10070800AE07EEFB7A0064017004ED148009EB6417
:0E071800024A7009ED243F4480FF120763225D
:100740007F381207637F0C1207637F061207637FEF
:040750000102076338
:0A076D00AC03120708AF040206FEF9
:0606C7008B4C8A4D894EA8
:1006CD00120708E4FDAB4CAA4DA94E8D827583002F
:0C06DD001203A3FF60061206FE0D80E968
:0106E90022EE
:0A064A00EF24FFFDEE34FFFC7F0AF1
:080654008E318F328C338D349E
:10065C007F017E00E4FBEBC39534E5336480F874D2
:0E066C008098500AAC31AD321203E20B80E8E8
:01067A00225D
:0406A3008A2E8B2FE1
:1006A700120708AA30EAFF7E00D394007480948072
:0F06B700400D12064AAC2EAD2F1206EA1A80E64D
:0106C6002211
:0405C3008B828A831A
:1005C700120708C3E58364809480400D7F2B1206D1
:1005D700FE85833A85823B80107F2D1206FEC3E499
:1005E7009582F53BE49583F53AAA39EAFF7E00D375
:1005F700940074809480400D12064AAC3AAD3B12C9
:0506070006EA1A80E67E
:01060C0022CB
:040578008A448B45E1
:10057C00120708AA46EAD39400748094804037EAA4
:10058C0024FFFDE434FFFC7F107E00120654AC44C3
:10059C00AD45CFCDCFCECCCE1203F4EF540FFEC36E
:1005AC00940A74809480EE5004243080022437FF27
:0605BC001206FE1A80BFCA
:0105C2002216
:04060D008A498B4A41
:10061100120708AA4BEAFF7E00D3940074809480ED
:100621004026EF24FFFDEE34FFFC7F02120654AC9E
:1006310049AD4ACFCDCFCECCCE1203F4EF54012435
:0806410030FF1206FE1A80CD05
:01064900228E
:10067B00020A000020200C00000000000000000017
:10068B00000000000000000000000000000000005F
:07069B000000000000000058
:100521008B3C8A3D893EAB3CAA3DA93E12038A60C1
:100531000D7401253EF53EE4353DF53D80E8AB3FC8
:10054100AA40A94112038A60220541E541700205D2
:100551004014F912038AFFAB3C053EE53EAA3D700B
:1005610002053D14F9EF1203D080D3AB3CAA3DA99B
:070571003EE41203D0FF225B
:080777007F277EE6DEFEDFFCB9
:01077F002257
:10026F007590FFC29020940E1207773094FD1207FD
:10027F00777E007F102220950E1207773095FD12A2
:10028F0007777E007F0C2220960E1207773096FD9F
:10029F001207777E007F082220970E12077730977C
:1002AF00FD1207777E007F0422C29120940E120761
:1002BF00773094FD1207777E007F0F2220950E1264
:1002CF0007773095FD1207777E007F0B2220960E61
:1002DF001207773096FD1207777E007F072220974F
:1002EF000E1207773097FD1207777E007F0322C229
:1002FF009220940E1207773094FD1207777E007FBD
:10030F000E2220950E1207773095FD1207777E008B
:10031F007F0A2220960E1207773096FD1207777EFE
:10032F00007F062220970E1207773097FD1207776E
:10033F007E007F0222C29320940E1207773094FD25
:10034F001207777E007F0D2220950E1207773095CA
:10035F00FD1207777E007F092220960E1207773055
:10036F0096FD1207777E007F052220970D120777E3
:0B037F003097FD1207777E007F0122FF
:06000300AB52AA53A95400
:100009008B4F8A508951C29020941890001EE47534
:10001900F001120468753001AB2BAA2A7D017F011A
:100029001206A3209510AB4FAA50A951900018E4CD
:1000390075F001120468209610AB4FAA50A951908F
:100049000010E475F001120468209710AB4FAA5014
:10005900A951900008E475F001120468C291209436
:1000690010AB4FAA50A95190001EE475F00112047B
:1000790068209510AB4FAA50A951900016E475F06D
:1000890001120468209610AB4FAA50A95190000E96
:10009900E475F001120468209710AB4FAA50A951DA
:1000A900900006E475F001120468C292209410AB26
:1000B9004FAA50A95190001AE475F0011204682062
:1000C9009510AB4FAA50A951900012E475F0011296
:1000D9000468209610AB4FAA50A95190000AE47504
:1000E900F001120468209710AB4FAA50A951900053
:1000F90002E475F001120468C293209410AB4FAA70
:1001090050A951900018E475F00112046820951067
:10011900AB4FAA50A951900010E475F00112046880
:10012900209610AB4FAA50A951900008E475F00130
:1001390012046820970DAB4FAA50A951E475F0013C
:040149001204492231
:10014D008B528A5389547590FFC29020940E1207DA
:10015D007720940512000380F812077720950E1270
:10016D00077720950512000380F812077720960E69
:10017D0012077720960512000380F8120777209753
:10018D000E12077720970512000380F8120777C229
:10019D009120940E12077720940512000380F81217
:1001AD00077720950E12077720950512000380F82A
:1001BD0012077720960E12077720960512000380FE
:1001CD00F812077720970E12077720970512000374
:1001DD0080F8120777C29220940E120777209405AB
:1001ED0012000380F812077720950E1207772095DD
:1001FD000512000380F812077720960E120777205C
:10020D00960512000380F812077720970E120777D4
:10021D0020970512000380F8120777C29320940EE1
:10022D0012077720940512000380F81207772095A6
:10023D000E12077720950512000380F8120777201C
:10024D00960E12077720960512000380F812077795
:10025D0020970E12077720970512000380F81207DA
:02026D007722F6
:1007260012074012026F8E088F09753002AB09AAB4
:0A073600087D017F011206A380E98F
:1004A100020726E493A3F8E493A34003F68001F244
:1004B10008DFF48029E493A3F85407240CC8C3335C
:1004C100C4540F4420C8834004F456800146F6DF2B
:1004D100E4800B010204081020408090067BE47E3A
:1004E100019360BCA3FF543F30E509541FFEE49320
:1004F100A360010ECF54C025E060A840B8E493A3E7
:10050100FAE493A3F8E493A3C8C582C8CAC583CA11
:10051100F0A3C8C582C8CAC583CADFE9DEE780BEC9
:0106A2000057
:10038A00BB010689828A83E0225002E722BBFE0271
:09039A00E32289828A83E49322A4
:1003A300BB010CE58229F582E5833AF583E022500F
:1003B30006E92582F8E622BBFE06E92582F8E22259
:0D03C300E58229F582E5833AF583E4932273
:1003D000BB010689828A83F0225002F722BBFE010C
:0203E000F32206
:1003E200EF8DF0A4A8F0CF8CF0A428CE8DF0A42E2F
:0203F200FE22E9
:1003F400BC000BBE0029EF8DF084FFADF022E4CCED
:10040400F875F008EF2FFFEE33FEEC33FCEE9DECB5
:10041400984005FCEE9DFE0FD5F0E9E4CEFD22EDFB
:10042400F8F5F0EE8420D21CFEADF075F008EF2F45
:10043400FFED33FD4007985006D5F0F222C398FD36
:050444000FD5F0EA22D3
:10044900BB010A89828A83F0E5F0A3F0225006F7FE
:0F04590009A7F01922BBFE06F3E5F009F31922FB
:10046800F8BB0111E58229F582E5833AF583E8F0C6
:10047800E5F0A3F0225009E92582C8F608A6F02283
:0D048800BBFE09E92582C8F2E5F008F2226A
:00000001FF
