:030000000201D129
:0C01D100787FE4F6D8FD7581300202183A
:1003600074696D653A00656E640074696D657365E6
:10037000743A00546865206E756D62657220636121
:0D0380006E6E6F74206265207A65726F00EA
:0C04590002230000022100000225000028
:100410005389F0438901758A66758CFCC28DD28C34
:07042000D2A9D2AFC2B9223C
:03000300D28C227A
:03000600C28C2287
:03000B0002000EE2
:10000E00C0E0C0F0C083C082C0D075D000C000C0B8
:10001E0001C002C003C004C005C006C007758CFC39
:10002E00758A180524E52470020523C39464E5231C
:10003E0064809480400EE5221522700215217523EE
:10004E00007524007BFF7A0379607D017F01120326
:10005E00B1751503AB22AA217D067F0112038DD344
:10006E00E5229400E5216480948050131204277BCE
:10007E00FF7A0379667D017F011203B1120006D06B
:10008E0007D006D005D004D003D002D001D000D0C6
:0A009E00D0D082D083D0F0D0E03241
:0E043B0000007F017ED87D23DDFEDEFCDFFAAF
:010449002290
:1000A800120410120427E5264525701B7BFF7A03EE
:1000B800796A7D017F011203B1751503AB22AA216C
:1000C8007D097F0112038D20B01112043B30B0FD71
:1000D80012043B0522E5227002052120B10E12040C
:1000E8003B30B1FD12043BE4F521F52220B22BE5AB
:1000F80022452170101204277BFF7A0379737D0152
:100108007F011203B112043B30B2FD12043B752586
:100118000075260112042712000320B38912043B3C
:1001280030B2FD12043BE4F525F526F521F522123F
:0501380004270200AEE7
:06044A00C2A58F80D2A7BD
:080450007F027EEFDEFEDFFCFF
:010458002281
:0A046600C2A612044AC2A702045005
:1003D400CFCDCFCECCCE12017C7C007D0A12017C25
:0403E400ED2430FFD5
:0A03E800D2A612044AC2A702045074
:1003F200AE07EEFB7A0064017004ED148009EB6431
:0E040200024A7009ED243F4480FF1204662276
:100427007F381204667F0C1204667F061204667F0B
:040437000102046654
:0A047000AC031203F2AF040203E82C
:0603B1008B118A12891372
:1003B7001203F2E4FDAB11AA12A9138D8275830013
:0C03C70012013DFF60061203E80D80E902
:0103D3002207
:0A032F00EF24FFFDEE34FFFC7F0A0F
:080339008E168F178C188D1928
:100341007F017E00E4FBEBC39519E5186480F87426
:0E0351008098500AAC16AD1712016A0B80E8B6
:01035F00227B
:04038D008A138B1430
:100391001203F2AA15EAFF7E00D3940074809480C0
:0F03A100400D12032FAC13AD141203D41A80E6D3
:0103B000222A
:0402A8008B828A8338
:1002AC001203F2C3E58364809480400D7F2B12030C
:1002BC00E885831F85822080107F2D1203E8C3E41C
:1002CC009582F520E49583F51FAA1EEAFF7E00D3E4
:1002DC00940074809480400D12032FAC1FAD20123B
:0502EC0003D41A80E6B6
:0102F10022EA
:04025D008A298B2A35
:100261001203F2AA2BEAD39400748094804037EAF7
:1002710024FFFDE434FFFC7F107E00120339AC291A
:10028100AD2ACFCDCFCECCCE12017CEF540FFEC321
:10029100940A74809480EE5004243080022437FF45
:0602A1001203E81A80BF01
:0102A7002234
:0402F2008A2E8B2F96
:1002F6001203F2AA30EAFF7E00D394007480948041
:100306004026EF24FFFDEE34FFFC7F02120339ACDA
:100316002EAD2FCFCDCFCECCCE12017CEF54012403
:0803260030FF1203E81A80CD3C
:01032E0022AC
:1001DD000200A8E493A3F8E493A34003F68001F290
:1001ED0008DFF48029E493A3F85407240CC8C33323
:1001FD00C4540F4420C8834004F456800146F6DFF2
:10020D00E4800B0102040810204080900459E47E24
:10021D00019360BCA3FF543F30E509541FFEE493E6
:10022D00A360010ECF54C025E060A840B8E493A3AD
:10023D00FAE493A3F8E493A3C8C582C8CAC583CAD8
:10024D00F0A3C8C582C8CAC583CADFE9DEE780BE90
:010465000096
:10013D00BB010CE58229F582E5833AF583E0225077
:10014D0006E92582F8E622BBFE06E92582F8E222C1
:0D015D00E58229F582E5833AF583E49322DB
:10016A00EF8DF0A4A8F0CF8CF0A428CE8DF0A42EA9
:02017A00FE2263
:10017C00BC000BBE0029EF8DF084FFADF022E4CC67
:10018C00F875F008EF2FFFEE33FEEC33FCEE9DEC30
:10019C00984005FCEE9DFE0FD5F0E9E4CEFD22ED76
:1001AC00F8F5F0EE8420D21CFEADF075F008EF2FC0
:1001BC00FFED33FD4007985006D5F0F222C398FDB1
:0501CC000FD5F0EA224E
:00000001FF
